{
  "contractName": "GachaGame",
  "abi": [
    {
      "anonymous": false,
      "inputs": [
        {
          "components": [
            {
              "internalType": "string",
              "name": "Name",
              "type": "string"
            },
            {
              "internalType": "uint8",
              "name": "Value",
              "type": "uint8"
            }
          ],
          "indexed": false,
          "internalType": "struct GachaGame.Card",
          "name": "card",
          "type": "tuple"
        }
      ],
      "name": "Pull",
      "type": "event"
    },
    {
      "inputs": [],
      "name": "queryId",
      "outputs": [
        {
          "internalType": "bytes32",
          "name": "",
          "type": "bytes32"
        }
      ],
      "stateMutability": "view",
      "type": "function",
      "constant": true
    },
    {
      "inputs": [],
      "name": "initialize",
      "outputs": [],
      "stateMutability": "payable",
      "type": "function",
      "payable": true
    },
    {
      "inputs": [],
      "name": "getAllPulledCards",
      "outputs": [
        {
          "components": [
            {
              "internalType": "string",
              "name": "Name",
              "type": "string"
            },
            {
              "internalType": "uint8",
              "name": "Value",
              "type": "uint8"
            }
          ],
          "internalType": "struct GachaGame.Card[]",
          "name": "",
          "type": "tuple[]"
        }
      ],
      "stateMutability": "view",
      "type": "function",
      "constant": true
    },
    {
      "inputs": [],
      "name": "pay",
      "outputs": [],
      "stateMutability": "payable",
      "type": "function",
      "payable": true
    },
    {
      "inputs": [],
      "name": "pull",
      "outputs": [],
      "stateMutability": "payable",
      "type": "function",
      "payable": true
    },
    {
      "inputs": [],
      "name": "checkBalance",
      "outputs": [
        {
          "internalType": "uint256",
          "name": "",
          "type": "uint256"
        }
      ],
      "stateMutability": "view",
      "type": "function",
      "constant": true
    },
    {
      "inputs": [
        {
          "internalType": "bytes32",
          "name": "_myid",
          "type": "bytes32"
        },
        {
          "internalType": "string",
          "name": "_result",
          "type": "string"
        }
      ],
      "name": "__callback",
      "outputs": [],
      "stateMutability": "nonpayable",
      "type": "function"
    },
    {
      "inputs": [
        {
          "internalType": "bytes32",
          "name": "_queryId",
          "type": "bytes32"
        },
        {
          "internalType": "string",
          "name": "_result",
          "type": "string"
        },
        {
          "internalType": "bytes",
          "name": "_proof",
          "type": "bytes"
        }
      ],
      "name": "__callback",
      "outputs": [],
      "stateMutability": "nonpayable",
      "type": "function"
    }
  ],
  "bytecode": "0x608060405234801561001057600080fd5b50614c0b806100206000396000f3fe60806040526004361061007b5760003560e01c806338bbfa501161004e57806338bbfa50146100e85780633f1be4d4146101115780638129fc1c1461013c578063c71daccb146101465761007b565b80631b9265b81461008057806327dc297e1461008a5780632eef3348146100b3578063329eb839146100de575b600080fd5b610088610171565b005b34801561009657600080fd5b506100b160048036038101906100ac9190613ee1565b610290565b005b3480156100bf57600080fd5b506100c86102ea565b6040516100d59190614702565b60405180910390f35b6100e6610408565b005b3480156100f457600080fd5b5061010f600480360381019061010a9190613f35565b61074d565b005b34801561011d57600080fd5b506101266107e4565b604051610133919061473f565b60405180910390f35b6101446107ea565b005b34801561015257600080fd5b5061015b6108ec565b60405161016891906148e1565b60405180910390f35b66038d7ea4c6800074ffffffffffffffffffffffffffffffffffffffffff163410156101d2576040517f08c379a00000000000000000000000000000000000000000000000000000000081526004016101c99061483f565b60405180910390fd5b61024b66038d7ea4c6800074ffffffffffffffffffffffffffffffffffffffffff1634816101fc57fe5b04600860003373ffffffffffffffffffffffffffffffffffffffff1673ffffffffffffffffffffffffffffffffffffffff1681526020019081526020016000205461093390919063ffffffff16565b600860003373ffffffffffffffffffffffffffffffffffffffff1673ffffffffffffffffffffffffffffffffffffffff16815260200190815260200160002081905550565b6102e68282600067ffffffffffffffff811180156102ad57600080fd5b506040519080825280601f01601f1916602001820160405280156102e05781602001600182028036833780820191505090505b5061074d565b5050565b60606006805480602002602001604051908101604052809291908181526020016000905b828210156103ff5783829060005260206000209060020201604051806040016040529081600082018054600181600116156101000203166002900480601f0160208091040260200160405190810160405280929190818152602001828054600181600116156101000203166002900480156103ca5780601f1061039f576101008083540402835291602001916103ca565b820191906000526020600020905b8154815290600101906020018083116103ad57829003601f168201915b505050505081526020016001820160009054906101000a900460ff1660ff1660ff16815250508152602001906001019061030e565b50505050905090565b66038d7ea4c6800074ffffffffffffffffffffffffffffffffffffffffff16341015610469576040517f08c379a00000000000000000000000000000000000000000000000000000000081526004016104609061483f565b60405180910390fd5b600166038d7ea4c6800074ffffffffffffffffffffffffffffffffffffffffff16348161049257fe5b0410156104d4576040517f08c379a00000000000000000000000000000000000000000000000000000000081526004016104cb9061485f565b60405180910390fd5b600a66038d7ea4c6800074ffffffffffffffffffffffffffffffffffffffffff1634816104fd57fe5b04111561053f576040517f08c379a00000000000000000000000000000000000000000000000000000000081526004016105369061489f565b60405180910390fd5b6105b866038d7ea4c6800074ffffffffffffffffffffffffffffffffffffffffff16348161056957fe5b04600860003373ffffffffffffffffffffffffffffffffffffffff1673ffffffffffffffffffffffffffffffffffffffff1681526020019081526020016000205461093390919063ffffffff16565b600860003373ffffffffffffffffffffffffffffffffffffffff1673ffffffffffffffffffffffffffffffffffffffff168152602001908152602001600020819055506000600860003373ffffffffffffffffffffffffffffffffffffffff1673ffffffffffffffffffffffffffffffffffffffff168152602001908152602001600020549050600160ff16811015610686576040517f08c379a000000000000000000000000000000000000000000000000000000000815260040161067d9061481f565b60405180910390fd5b6106d881600860003373ffffffffffffffffffffffffffffffffffffffff1673ffffffffffffffffffffffffffffffffffffffff1681526020019081526020016000205461098890919063ffffffff16565b600860003373ffffffffffffffffffffffffffffffffffffffff1673ffffffffffffffffffffffffffffffffffffffff1681526020019081526020016000208190555060005b81811015610749576107366000600162030d406109d2565b600981905550808060010191505061071e565b5050565b610755610eb6565b73ffffffffffffffffffffffffffffffffffffffff163373ffffffffffffffffffffffffffffffffffffffff161461078c57600080fd5b60006107998484846111ca565b60ff1614156107df576107de60c8836040516020016107b89190614684565b6040516020818303038152906040528051906020012060001c816107d857fe5b066112fa565b5b505050565b60095481565b600560019054906101000a900460ff1680610809575061080861155f565b5b806108215750600560009054906101000a900460ff16155b610860576040517f08c379a00000000000000000000000000000000000000000000000000000000081526004016108579061487f565b60405180910390fd5b6000600560019054906101000a900460ff1615905080156108b2576001600560016101000a81548160ff0219169083151502179055506001600560006101000a81548160ff0219169083151502179055505b6108bf603060f81b611576565b6108c7611872565b80156108e9576000600560016101000a81548160ff0219169083151502179055505b50565b6000600860003373ffffffffffffffffffffffffffffffffffffffff1673ffffffffffffffffffffffffffffffffffffffff16815260200190815260200160002054905090565b60008082840190508381101561097e576040517f08c379a0000000000000000000000000000000000000000000000000000000008152600401610975906147ff565b60405180910390fd5b8091505092915050565b60006109ca83836040518060400160405280601e81526020017f536166654d6174683a207375627472616374696f6e206f766572666c6f770000815250611a75565b905092915050565b600080831180156109e4575060208311155b6109ed57600080fd5b600a840293506060600167ffffffffffffffff81118015610a0d57600080fd5b506040519080825280601f01601f191660200182016040528015610a405781602001600182028036833780820191505090505b5090508360f81b81600081518110610a5457fe5b60200101907effffffffffffffffffffffffffffffffffffffffffffffffffffffffffffff1916908160001a9053506060602067ffffffffffffffff81118015610a9d57600080fd5b506040519080825280601f01601f191660200182016040528015610ad05781602001600182028036833780820191505090505b5090506060602067ffffffffffffffff81118015610aed57600080fd5b506040519080825280601f01601f191660200182016040528015610b205781602001600182028036833780820191505090505b5090506000610b2d611ad0565b9050602083524241186001430340186020840152602082528060208301526060602067ffffffffffffffff81118015610b6557600080fd5b506040519080825280601f01601f191660200182016040528015610b985781602001600182028036833780820191505090505b5090508860208201526060600867ffffffffffffffff81118015610bbb57600080fd5b506040519080825280601f01601f191660200182016040528015610bee5781602001600182028036833780820191505090505b509050610c018260186008846000611de2565b50610c0a613c2e565b60405180608001604052808781526020018881526020018681526020018481525090506000610c6f6040518060400160405280600681526020017f72616e646f6d0000000000000000000000000000000000000000000000000000815250838c611e41565b90506060600867ffffffffffffffff81118015610c8b57600080fd5b506040519080825280601f01601f191660200182016040528015610cbe5781602001600182028036833780820191505090505b50905060208401517f0100000000000000000000000000000000000000000000000000000000000000810460278301537e01000000000000000000000000000000000000000000000000000000000000810460268301537d010000000000000000000000000000000000000000000000000000000000810460258301537c0100000000000000000000000000000000000000000000000000000000810460248301537b01000000000000000000000000000000000000000000000000000000810460238301537a010000000000000000000000000000000000000000000000000000810460228301537901000000000000000000000000000000000000000000000000008104602183015378010000000000000000000000000000000000000000000000008104602083015350610ea3828285600160048110610dfd57fe5b6020020151600287600060048110610e1157fe5b6020020151604051610e239190614603565b602060405180830381855afa158015610e40573d6000803e3d6000fd5b5050506040513d601f19601f82011682018060405250810190610e639190613eb8565b87600260048110610e7057fe5b6020020151604051602001610e889493929190614642565b604051602081830303815290604052805190602001206121be565b8199505050505050505050509392505050565b60008073ffffffffffffffffffffffffffffffffffffffff16600160009054906101000a900473ffffffffffffffffffffffffffffffffffffffff1673ffffffffffffffffffffffffffffffffffffffff161480610f3e57506000610f3c600160009054906101000a900473ffffffffffffffffffffffffffffffffffffffff166121da565b145b15610f4f57610f4d60006121e5565b505b600160009054906101000a900473ffffffffffffffffffffffffffffffffffffffff1673ffffffffffffffffffffffffffffffffffffffff166338cc48316040518163ffffffff1660e01b8152600401602060405180830381600087803b158015610fb957600080fd5b505af1158015610fcd573d6000803e3d6000fd5b505050506040513d601f19601f82011682018060405250810190610ff19190613e8f565b73ffffffffffffffffffffffffffffffffffffffff1660008054906101000a900473ffffffffffffffffffffffffffffffffffffffff1673ffffffffffffffffffffffffffffffffffffffff161461112557600160009054906101000a900473ffffffffffffffffffffffffffffffffffffffff1673ffffffffffffffffffffffffffffffffffffffff166338cc48316040518163ffffffff1660e01b8152600401602060405180830381600087803b1580156110ad57600080fd5b505af11580156110c1573d6000803e3d6000fd5b505050506040513d601f19601f820116820180604052508101906110e59190613e8f565b6000806101000a81548173ffffffffffffffffffffffffffffffffffffffff021916908373ffffffffffffffffffffffffffffffffffffffff1602179055505b60008054906101000a900473ffffffffffffffffffffffffffffffffffffffff1673ffffffffffffffffffffffffffffffffffffffff1663c281d19e6040518163ffffffff1660e01b8152600401602060405180830381600087803b15801561118d57600080fd5b505af11580156111a1573d6000803e3d6000fd5b505050506040513d601f19601f820116820180604052508101906111c59190613e8f565b905090565b60007f4c00000000000000000000000000000000000000000000000000000000000000826000815181106111fa57fe5b602001015160f81c60f81b7effffffffffffffffffffffffffffffffffffffffffffffffffffffffffffff191614158061128d57507f50000000000000000000000000000000000000000000000000000000000000008260018151811061125d57fe5b602001015160f81c60f81b7effffffffffffffffffffffffffffffffffffffffffffffffffffffffffffff191614155b806112b95750600160ff16826002815181106112a557fe5b602001015160f81c60f81b60f81c60ff1614155b156112c757600190506112f3565b60006112dc8386866112d76121f6565b612298565b9050806112ed5760029150506112f3565b60009150505b9392505050565b60198111156113a75760066007604051611313906146d8565b9081526020016040518091039020908060018154018082558091505060019003906000526020600020906002020160009091909190915060008201816000019080546001816001161561010002031660029004611371929190613c55565b506001820160009054906101000a900460ff168160010160006101000a81548160ff021916908360ff1602179055505050611503565b600581101580156113b9575060198111155b1561146257600660076040516113ce906146ed565b908152602001604051809103902090806001815401808255809150506001900390600052602060002090600202016000909190919091506000820181600001908054600181600116156101000203166002900461142c929190613c55565b506001820160009054906101000a900460ff168160010160006101000a81548160ff021916908360ff1602179055505050611502565b60066007604051611472906146c3565b90815260200160405180910390209080600181540180825580915050600190039060005260206000209060020201600090919091909150600082018160000190805460018160011615610100020316600290046114d0929190613c55565b506001820160009054906101000a900460ff168160010160006101000a81548160ff021916908360ff16021790555050505b5b7f6ee21981be617443567eeac157be22928d3cfa41c453eb6c666eff8cd650fa4f60066001600680549050038154811061153957fe5b906000526020600020906002020160405161155491906148bf565b60405180910390a150565b6000803090506000813b9050600081149250505090565b600073ffffffffffffffffffffffffffffffffffffffff16600160009054906101000a900473ffffffffffffffffffffffffffffffffffffffff1673ffffffffffffffffffffffffffffffffffffffff1614806115fd575060006115fb600160009054906101000a900473ffffffffffffffffffffffffffffffffffffffff166121da565b145b1561160e5761160c60006121e5565b505b600160009054906101000a900473ffffffffffffffffffffffffffffffffffffffff1673ffffffffffffffffffffffffffffffffffffffff166338cc48316040518163ffffffff1660e01b8152600401602060405180830381600087803b15801561167857600080fd5b505af115801561168c573d6000803e3d6000fd5b505050506040513d601f19601f820116820180604052508101906116b09190613e8f565b73ffffffffffffffffffffffffffffffffffffffff1660008054906101000a900473ffffffffffffffffffffffffffffffffffffffff1673ffffffffffffffffffffffffffffffffffffffff16146117e457600160009054906101000a900473ffffffffffffffffffffffffffffffffffffffff1673ffffffffffffffffffffffffffffffffffffffff166338cc48316040518163ffffffff1660e01b8152600401602060405180830381600087803b15801561176c57600080fd5b505af1158015611780573d6000803e3d6000fd5b505050506040513d601f19601f820116820180604052508101906117a49190613e8f565b6000806101000a81548173ffffffffffffffffffffffffffffffffffffffff021916908373ffffffffffffffffffffffffffffffffffffffff1602179055505b60008054906101000a900473ffffffffffffffffffffffffffffffffffffffff1673ffffffffffffffffffffffffffffffffffffffff1663688dcfd7826040518263ffffffff1660e01b815260040161183d9190614724565b600060405180830381600087803b15801561185757600080fd5b505af115801561186b573d6000803e3d6000fd5b5050505050565b60405180604001604052806040518060400160405280600481526020017f52617265000000000000000000000000000000000000000000000000000000008152508152602001600160ff1681525060076040516118ce906146d8565b908152602001604051809103902060008201518160000190805190602001906118f8929190613cdc565b5060208201518160010160006101000a81548160ff021916908360ff16021790555090505060405180604001604052806040518060400160405280600a81526020017f53757065722052617265000000000000000000000000000000000000000000008152508152602001600360ff168152506007604051611979906146ed565b908152602001604051809103902060008201518160000190805190602001906119a3929190613cdc565b5060208201518160010160006101000a81548160ff021916908360ff16021790555090505060405180604001604052806040518060400160405280600a81526020017f556c7472612052617265000000000000000000000000000000000000000000008152508152602001600a60ff168152506007604051611a24906146c3565b90815260200160405180910390206000820151816000019080519060200190611a4e929190613cdc565b5060208201518160010160006101000a81548160ff021916908360ff160217905550905050565b6000838311158290611abd576040517f08c379a0000000000000000000000000000000000000000000000000000000008152600401611ab491906147ad565b60405180910390fd5b5060008385039050809150509392505050565b60008073ffffffffffffffffffffffffffffffffffffffff16600160009054906101000a900473ffffffffffffffffffffffffffffffffffffffff1673ffffffffffffffffffffffffffffffffffffffff161480611b5857506000611b56600160009054906101000a900473ffffffffffffffffffffffffffffffffffffffff166121da565b145b15611b6957611b6760006121e5565b505b600160009054906101000a900473ffffffffffffffffffffffffffffffffffffffff1673ffffffffffffffffffffffffffffffffffffffff166338cc48316040518163ffffffff1660e01b8152600401602060405180830381600087803b158015611bd357600080fd5b505af1158015611be7573d6000803e3d6000fd5b505050506040513d601f19601f82011682018060405250810190611c0b9190613e8f565b73ffffffffffffffffffffffffffffffffffffffff1660008054906101000a900473ffffffffffffffffffffffffffffffffffffffff1673ffffffffffffffffffffffffffffffffffffffff1614611d3f57600160009054906101000a900473ffffffffffffffffffffffffffffffffffffffff1673ffffffffffffffffffffffffffffffffffffffff166338cc48316040518163ffffffff1660e01b8152600401602060405180830381600087803b158015611cc757600080fd5b505af1158015611cdb573d6000803e3d6000fd5b505050506040513d601f19601f82011682018060405250810190611cff9190613e8f565b6000806101000a81548173ffffffffffffffffffffffffffffffffffffffff021916908373ffffffffffffffffffffffffffffffffffffffff1602179055505b60008054906101000a900473ffffffffffffffffffffffffffffffffffffffff1673ffffffffffffffffffffffffffffffffffffffff1663abaa5f3e6040518163ffffffff1660e01b815260040160206040518083038186803b158015611da557600080fd5b505afa158015611db9573d6000803e3d6000fd5b505050506040513d601f19601f82011682018060405250810190611ddd9190613eb8565b905090565b6060600082850190508084511015611df957600080fd5b600086602001905060008460200190505b868860200101821015611e325781890151808288015250602082019150602081019050611e0a565b85935050505095945050505050565b60008073ffffffffffffffffffffffffffffffffffffffff16600160009054906101000a900473ffffffffffffffffffffffffffffffffffffffff1673ffffffffffffffffffffffffffffffffffffffff161480611ec957506000611ec7600160009054906101000a900473ffffffffffffffffffffffffffffffffffffffff166121da565b145b15611eda57611ed860006121e5565b505b600160009054906101000a900473ffffffffffffffffffffffffffffffffffffffff1673ffffffffffffffffffffffffffffffffffffffff166338cc48316040518163ffffffff1660e01b8152600401602060405180830381600087803b158015611f4457600080fd5b505af1158015611f58573d6000803e3d6000fd5b505050506040513d601f19601f82011682018060405250810190611f7c9190613e8f565b73ffffffffffffffffffffffffffffffffffffffff1660008054906101000a900473ffffffffffffffffffffffffffffffffffffffff1673ffffffffffffffffffffffffffffffffffffffff16146120b057600160009054906101000a900473ffffffffffffffffffffffffffffffffffffffff1673ffffffffffffffffffffffffffffffffffffffff166338cc48316040518163ffffffff1660e01b8152600401602060405180830381600087803b15801561203857600080fd5b505af115801561204c573d6000803e3d6000fd5b505050506040513d601f19601f820116820180604052508101906120709190613e8f565b6000806101000a81548173ffffffffffffffffffffffffffffffffffffffff021916908373ffffffffffffffffffffffffffffffffffffffff1602179055505b6060600467ffffffffffffffff811180156120ca57600080fd5b506040519080825280602002602001820160405280156120fe57816020015b60608152602001906001900390816120e95790505b5090508360006004811061210e57fe5b60200201518160008151811061212057fe5b60200260200101819052508360016004811061213857fe5b60200201518160018151811061214a57fe5b60200260200101819052508360026004811061216257fe5b60200201518160028151811061217457fe5b60200260200101819052508360036004811061218c57fe5b60200201518160038151811061219e57fe5b60200260200101819052506121b48582856127dd565b9150509392505050565b8060036000848152602001908152602001600020819055505050565b6000813b9050919050565b60006121ef612bea565b9050919050565b606060028054600181600116156101000203166002900480601f01602080910402602001604051908101604052809291908181526020018280546001816001161561010002031660029004801561228e5780601f106122635761010080835404028352916020019161228e565b820191906000526020600020905b81548152906001019060200180831161227157829003601f168201915b5050505050905090565b60008060206002876045815181106122ac57fe5b602001015160f81c60f81b60f81c60ff16016044010190506060602067ffffffffffffffff811180156122de57600080fd5b506040519080825280601f01601f1916602001820160405280156123115781602001600182028036833780820191505090505b50905061232387836020846000611de2565b506002848760405160200161233992919061469b565b6040516020818303038152906040526040516123559190614603565b602060405180830381855afa158015612372573d6000803e3d6000fd5b5050506040513d601f19601f820116820180604052508101906123959190613eb8565b6040516020016123a591906145e8565b604051602081830303815290604052805190602001208180519060200120146123d3576000925050506127d5565b606060028860016049860101815181106123e957fe5b602001015160f81c60f81b60f81c60ff160167ffffffffffffffff8111801561241157600080fd5b506040519080825280601f01601f1916602001820160405280156124445781602001600182028036833780820191505090505b50905061245988604985018351846000611de2565b506124d660028260405161246d9190614603565b602060405180830381855afa15801561248a573d6000803e3d6000fd5b5050506040513d601f19601f820116820180604052508101906124ad9190613eb8565b878a60086020880101815181106124c057fe5b602001015160f81c60f81b60f81c60ff16613141565b6124e657600093505050506127d5565b6060602967ffffffffffffffff8111801561250057600080fd5b506040519080825280601f01601f1916602001820160405280156125335781602001600182028036833780820191505090505b50905061254889602086016029846000611de2565b506060604067ffffffffffffffff8111801561256357600080fd5b506040519080825280601f01601f1916602001820160405280156125965781602001600182028036833780820191505090505b50905060006041845160296020890101010190506125bc8b604083036040856000611de2565b5060006002836040516125cf9190614603565b602060405180830381855afa1580156125ec573d6000803e3d6000fd5b5050506040513d601f19601f8201168201806040525081019061260f9190613eb8565b9050838160405160200161262492919061461a565b60405160208183030381529060405280519060200120600360008d815260200190815260200160002054141561267057600360008c815260200190815260200160002060009055612680565b60009750505050505050506127d5565b6060604967ffffffffffffffff8111801561269a57600080fd5b506040519080825280601f01601f1916602001820160405280156126cd5781602001600182028036833780820191505090505b5090506126df8d896049846000611de2565b5061273a6002826040516126f39190614603565b602060405180830381855afa158015612710573d6000803e3d6000fd5b5050506040513d601f19601f820116820180604052508101906127339190613eb8565b87866131ee565b61274f576000985050505050505050506127d5565b6004600083815260200190815260200160002060009054906101000a900460ff166127a95761277e8d846133da565b6004600084815260200190815260200160002060006101000a81548160ff0219169083151502179055505b6004600083815260200190815260200160002060009054906101000a900460ff16985050505050505050505b949350505050565b60008073ffffffffffffffffffffffffffffffffffffffff16600160009054906101000a900473ffffffffffffffffffffffffffffffffffffffff1673ffffffffffffffffffffffffffffffffffffffff16148061286557506000612863600160009054906101000a900473ffffffffffffffffffffffffffffffffffffffff166121da565b145b156128765761287460006121e5565b505b600160009054906101000a900473ffffffffffffffffffffffffffffffffffffffff1673ffffffffffffffffffffffffffffffffffffffff166338cc48316040518163ffffffff1660e01b8152600401602060405180830381600087803b1580156128e057600080fd5b505af11580156128f4573d6000803e3d6000fd5b505050506040513d601f19601f820116820180604052508101906129189190613e8f565b73ffffffffffffffffffffffffffffffffffffffff1660008054906101000a900473ffffffffffffffffffffffffffffffffffffffff1673ffffffffffffffffffffffffffffffffffffffff1614612a4c57600160009054906101000a900473ffffffffffffffffffffffffffffffffffffffff1673ffffffffffffffffffffffffffffffffffffffff166338cc48316040518163ffffffff1660e01b8152600401602060405180830381600087803b1580156129d457600080fd5b505af11580156129e8573d6000803e3d6000fd5b505050506040513d601f19601f82011682018060405250810190612a0c9190613e8f565b6000806101000a81548173ffffffffffffffffffffffffffffffffffffffff021916908373ffffffffffffffffffffffffffffffffffffffff1602179055505b60008060009054906101000a900473ffffffffffffffffffffffffffffffffffffffff1673ffffffffffffffffffffffffffffffffffffffff16632ef3accc86856040518363ffffffff1660e01b8152600401612aaa9291906147cf565b602060405180830381600087803b158015612ac457600080fd5b505af1158015612ad8573d6000803e3d6000fd5b505050506040513d601f19601f82011682018060405250810190612afc9190613fb4565b9050823a02670de0b6b3a764000001811115612b1e576000801b915050612be3565b6060612b29856137ca565b905060008054906101000a900473ffffffffffffffffffffffffffffffffffffffff1673ffffffffffffffffffffffffffffffffffffffff1663c55c1cb68360008985896040518663ffffffff1660e01b8152600401612b8c949392919061475a565b6020604051808303818588803b158015612ba557600080fd5b505af1158015612bb9573d6000803e3d6000fd5b50505050506040513d601f19601f82011682018060405250810190612bde9190613eb8565b925050505b9392505050565b600080612c0a731d3b2638a7cc9f2cb3d298a3da7a90b67e5506ed6121da565b1115612cac57731d3b2638a7cc9f2cb3d298a3da7a90b67e5506ed600160006101000a81548173ffffffffffffffffffffffffffffffffffffffff021916908373ffffffffffffffffffffffffffffffffffffffff160217905550612ca36040518060400160405280600b81526020017f6574685f6d61696e6e6574000000000000000000000000000000000000000000815250613847565b6001905061313e565b6000612ccb73c03a2615d5efaf5f49f60b7bb6583eaec212fdf16121da565b1115612d6d5773c03a2615d5efaf5f49f60b7bb6583eaec212fdf1600160006101000a81548173ffffffffffffffffffffffffffffffffffffffff021916908373ffffffffffffffffffffffffffffffffffffffff160217905550612d646040518060400160405280600c81526020017f6574685f726f707374656e330000000000000000000000000000000000000000815250613847565b6001905061313e565b6000612d8c73b7a07bcf2ba2f2703b24c0691b5278999c59ac7e6121da565b1115612e2e5773b7a07bcf2ba2f2703b24c0691b5278999c59ac7e600160006101000a81548173ffffffffffffffffffffffffffffffffffffffff021916908373ffffffffffffffffffffffffffffffffffffffff160217905550612e256040518060400160405280600981526020017f6574685f6b6f76616e0000000000000000000000000000000000000000000000815250613847565b6001905061313e565b6000612e4d73146500cfd35b22e4a392fe0adc06de1a1368ed486121da565b1115612eef5773146500cfd35b22e4a392fe0adc06de1a1368ed48600160006101000a81548173ffffffffffffffffffffffffffffffffffffffff021916908373ffffffffffffffffffffffffffffffffffffffff160217905550612ee66040518060400160405280600b81526020017f6574685f72696e6b656279000000000000000000000000000000000000000000815250613847565b6001905061313e565b6000612f0e73a2998efd205fb9d4b4963afb70778d6354ad3a416121da565b1115612fb05773a2998efd205fb9d4b4963afb70778d6354ad3a41600160006101000a81548173ffffffffffffffffffffffffffffffffffffffff021916908373ffffffffffffffffffffffffffffffffffffffff160217905550612fa76040518060400160405280600a81526020017f6574685f676f65726c6900000000000000000000000000000000000000000000815250613847565b6001905061313e565b6000612fcf736f485c8bf6fc43ea212e93bbf8ce046c7f1cb4756121da565b111561303357736f485c8bf6fc43ea212e93bbf8ce046c7f1cb475600160006101000a81548173ffffffffffffffffffffffffffffffffffffffff021916908373ffffffffffffffffffffffffffffffffffffffff1602179055506001905061313e565b60006130527320e12a1f859b3feae5fb2a0a32c18f5a65555bbf6121da565b11156130b6577320e12a1f859b3feae5fb2a0a32c18f5a65555bbf600160006101000a81548173ffffffffffffffffffffffffffffffffffffffff021916908373ffffffffffffffffffffffffffffffffffffffff1602179055506001905061313e565b60006130d57351efaf4c8b3c9afbd5ab9f4bbc82784ab6ef8faa6121da565b1115613139577351efaf4c8b3c9afbd5ab9f4bbc82784ab6ef8faa600160006101000a81548173ffffffffffffffffffffffffffffffffffffffff021916908373ffffffffffffffffffffffffffffffffffffffff1602179055506001905061313e565b600090505b90565b600080600190508284511461315557600080fd5b60005b838110156131e25784818151811061316c57fe5b602001015160f81c60f81b7effffffffffffffffffffffffffffffffffffffffffffffffffffffffffffff19168682602081106131a557fe5b1a60f81b7effffffffffffffffffffffffffffffffffffffffffffffffffffffffffffff1916146131d557600091505b8080600101915050613158565b50809150509392505050565b60008060008060006060602067ffffffffffffffff8111801561321057600080fd5b506040519080825280601f01601f1916602001820160405280156132435781602001600182028036833780820191505090505b509050600060208960038151811061325757fe5b602001015160f81c60f81b60f81c60ff1603600401905061327d89826020856000611de2565b91506060602067ffffffffffffffff8111801561329957600080fd5b506040519080825280601f01601f1916602001820160405280156132cc5781602001600182028036833780820191505090505b5090506022820191506133088a60208c60018603815181106132ea57fe5b602001015160f81c60f81b60f81c60ff160384016020846000611de2565b905060208301519450602081015193506133258b601b8787613861565b80975081985050508573ffffffffffffffffffffffffffffffffffffffff16898051906020012060001c73ffffffffffffffffffffffffffffffffffffffff16141561337b5760019750505050505050506133d3565b6133888b601c8787613861565b80975081985050508573ffffffffffffffffffffffffffffffffffffffff16898051906020012060001c73ffffffffffffffffffffffffffffffffffffffff16149750505050505050505b9392505050565b600080606060028560018601815181106133f057fe5b602001015160f81c60f81b60f81c60ff160167ffffffffffffffff8111801561341857600080fd5b506040519080825280601f01601f19166020018201604052801561344b5781602001600182028036833780820191505090505b50905061345d85858351846000611de2565b506060604067ffffffffffffffff8111801561347857600080fd5b506040519080825280601f01601f1916602001820160405280156134ab5781602001600182028036833780820191505090505b5090506134be8660046040846000611de2565b506060606267ffffffffffffffff811180156134d957600080fd5b506040519080825280601f01601f19166020018201604052801561350c5781602001600182028036833780820191505090505b509050600160f81b8160008151811061352157fe5b60200101907effffffffffffffffffffffffffffffffffffffffffffffffffffffffffffff1916908160001a90535061356287604188036041846001611de2565b5060606040518060400160405280602081526020017ffd94fa71bc0ba10d39d464d0d8f465efeef0a2764e3887fcc9df41ded20f505c81525090506135ad8160006020856042611de2565b506136086002836040516135c19190614603565b602060405180830381855afa1580156135de573d6000803e3d6000fd5b5050506040513d601f19601f820116820180604052508101906136019190613eb8565b85856131ee565b94508461361d576000955050505050506137c4565b6060604051806060016040528060408152602001614b966040913990506060604267ffffffffffffffff8111801561365457600080fd5b506040519080825280601f01601f1916602001820160405280156136875781602001600182028036833780820191505090505b50905060fe60f81b8160008151811061369c57fe5b60200101907effffffffffffffffffffffffffffffffffffffffffffffffffffffffffffff1916908160001a9053506136db8a60036041846001611de2565b50606060028b6045815181106136ed57fe5b602001015160f81c60f81b60f81c60ff160167ffffffffffffffff8111801561371557600080fd5b506040519080825280601f01601f1916602001820160405280156137485781602001600182028036833780820191505090505b50905061375b8b60448351846000611de2565b506137b660028360405161376f9190614603565b602060405180830381855afa15801561378c573d6000803e3d6000fd5b5050506040513d601f19601f820116820180604052508101906137af9190613eb8565b82856131ee565b975087985050505050505050505b92915050565b60606137d46138a5565b6137dc613d5c565b6137e8816104006138b1565b6137f1816138fb565b60005b83518110156138305761382384828151811061380c57fe5b60200260200101518361390990919063ffffffff16565b80806001019150506137f4565b5061383a8161392e565b8060000151915050919050565b806002908051906020019061385d929190613cdc565b5050565b60008060008060405188815287602082015286604082015285606082015260208160808360006001610bb8f192508051915050818193509350505094509492505050565b60405180590338823950565b60008190506000602082816138c257fe5b06146138db57602081816138d257fe5b06602003810190505b808360200181815250506040518084526000815281810160405250505050565b61390681600461393c565b50565b613916826002835161395d565b6139298183613a9d90919063ffffffff16565b505050565b61393981600761393c565b50565b613959601f60058360ff16901b1783613b4890919063ffffffff16565b5050565b60178111613989576139848160058460ff16901b60ff161784613b4890919063ffffffff16565b613a98565b60ff81116139ca576139ae601860058460ff16901b1784613b4890919063ffffffff16565b6139c481600185613b889092919063ffffffff16565b50613a97565b61ffff8111613a0c576139f0601960058460ff16901b1784613b4890919063ffffffff16565b613a0681600285613b889092919063ffffffff16565b50613a96565b63ffffffff8111613a5057613a34601a60058460ff16901b1784613b4890919063ffffffff16565b613a4a81600485613b889092919063ffffffff16565b50613a95565b67ffffffffffffffff8111613a9457613a7c601b60058460ff16901b1784613b4890919063ffffffff16565b613a9281600885613b889092919063ffffffff16565b505b5b5b5b5b505050565b613aa5613d5c565b82602001518360000151518351011115613ad557613ad4836002613ace86602001518651613bef565b02613c0b565b5b60008060008451905085518051602081830101945086518101825260208701935050505b60208110613b1c5781518352602083019250602082019150602081039050613af9565b60006001826020036101000a039050801983511681855116818117865250508694505050505092915050565b81602001516001836000015151011115613b6e57613b6d826002846020015102613c0b565b5b815180516020818301018381536001820183525050505050565b613b90613d5c565b836020015184600001515183011115613bbe57613bbd846002613bb7876020015186613bef565b02613c0b565b5b60006001836101000a0390508451805184818301018684198251161781528582018352505050849150509392505050565b600081831115613c0157829050613c05565b8190505b92915050565b606082600001519050613c1e83836138b1565b613c288382613a9d565b50505050565b60405180608001604052806004905b6060815260200190600190039081613c3d5790505090565b828054600181600116156101000203166002900490600052602060002090601f016020900481019282601f10613c8e5780548555613ccb565b82800160010185558215613ccb57600052602060002091601f016020900482015b82811115613cca578254825591600101919060010190613caf565b5b509050613cd89190613d76565b5090565b828054600181600116156101000203166002900490600052602060002090601f016020900481019282601f10613d1d57805160ff1916838001178555613d4b565b82800160010185558215613d4b579182015b82811115613d4a578251825591602001919060010190613d2f565b5b509050613d589190613d76565b5090565b604051806040016040528060608152602001600081525090565b5b80821115613d8f576000816000905550600101613d77565b5090565b600081519050613da281614b50565b92915050565b600081359050613db781614b67565b92915050565b600081519050613dcc81614b67565b92915050565b600082601f830112613de357600080fd5b8135613df6613df182614929565b6148fc565b91508082526020830160208301858383011115613e1257600080fd5b613e1d838284614acc565b50505092915050565b600082601f830112613e3757600080fd5b8135613e4a613e4582614955565b6148fc565b91508082526020830160208301858383011115613e6657600080fd5b613e71838284614acc565b50505092915050565b600081519050613e8981614b7e565b92915050565b600060208284031215613ea157600080fd5b6000613eaf84828501613d93565b91505092915050565b600060208284031215613eca57600080fd5b6000613ed884828501613dbd565b91505092915050565b60008060408385031215613ef457600080fd5b6000613f0285828601613da8565b925050602083013567ffffffffffffffff811115613f1f57600080fd5b613f2b85828601613e26565b9150509250929050565b600080600060608486031215613f4a57600080fd5b6000613f5886828701613da8565b935050602084013567ffffffffffffffff811115613f7557600080fd5b613f8186828701613e26565b925050604084013567ffffffffffffffff811115613f9e57600080fd5b613faa86828701613dd2565b9150509250925092565b600060208284031215613fc657600080fd5b6000613fd484828501613e7a565b91505092915050565b6000613fe98383614544565b905092915050565b6000613ffc826149a6565b61400681856149d4565b93508360208202850161401885614981565b8060005b8581101561405457848403895281516140358582613fdd565b9450614040836149c7565b925060208a0199505060018101905061401c565b50829750879550505050505092915050565b61406f81614a4d565b82525050565b61407e81614a79565b82525050565b61409561409082614a79565b614b28565b82525050565b60006140a6826149b1565b6140b081856149e5565b93506140c0818560208601614adb565b6140c981614b32565b840191505092915050565b60006140df826149b1565b6140e981856149f6565b93506140f9818560208601614adb565b80840191505092915050565b61410e81614aba565b82525050565b600061411f826149bc565b6141298185614a01565b9350614139818560208601614adb565b61414281614b32565b840191505092915050565b6000614158826149bc565b6141628185614a12565b9350614172818560208601614adb565b61417b81614b32565b840191505092915050565b6000614191826149bc565b61419b8185614a23565b93506141ab818560208601614adb565b80840191505092915050565b6000815460018116600081146141d457600181146141fa5761423e565b607f60028304166141e58187614a01565b955060ff19831686526020860193505061423e565b600282046142088187614a01565b955061421385614991565b60005b8281101561423557815481890152600182019150602081019050614216565b80880195505050505b505092915050565b6000614253601b83614a12565b91507f536166654d6174683a206164646974696f6e206f766572666c6f7700000000006000830152602082019050919050565b6000614293602483614a12565b91507f596f75206e65656420746f2070756c6c2061206d696e696d756d206f6620312060008301527f74696d65000000000000000000000000000000000000000000000000000000006020830152604082019050919050565b60006142f9602683614a12565b91507f302e30303120457468657220697320746865206d696e696d756d20726571756960008301527f72656d656e7400000000000000000000000000000000000000000000000000006020830152604082019050919050565b600061435f602583614a12565b91507f596f7520646f206e6f74206861766520656e6f7567682066756e647320746f2060008301527f70756c6c210000000000000000000000000000000000000000000000000000006020830152604082019050919050565b60006143c5600a83614a23565b91507f556c7472612052617265000000000000000000000000000000000000000000006000830152600a82019050919050565b6000614405602e83614a12565b91507f496e697469616c697a61626c653a20636f6e747261637420697320616c72656160008301527f647920696e697469616c697a65640000000000000000000000000000000000006020830152604082019050919050565b600061446b603f83614a12565b91507f596f7520617265206e6f7420616c6c6f77656420746f2070756c6c206d6f726560008301527f207468616e2031302074696d657320696e20612073696e676c65207475726e006020830152604082019050919050565b60006144d1600483614a23565b91507f52617265000000000000000000000000000000000000000000000000000000006000830152600482019050919050565b6000614511600a83614a23565b91507f53757065722052617265000000000000000000000000000000000000000000006000830152600a82019050919050565b600060408301600083015184820360008601526145618282614114565b915050602083015161457660208601826145d9565b508091505092915050565b6000604083016000808401858303600087015261459e83826141b7565b925050600184015490506145b181614b0e565b6145be60208701826145d9565b50819250505092915050565b6145d381614aa3565b82525050565b6145e281614aad565b82525050565b60006145f48284614084565b60208201915081905092915050565b600061460f82846140d4565b915081905092915050565b600061462682856140d4565b91506146328284614084565b6020820191508190509392505050565b600061464e82876140d4565b915061465a82866140d4565b91506146668285614084565b60208201915061467682846140d4565b915081905095945050505050565b60006146908284614186565b915081905092915050565b60006146a78285614186565b91506146b38284614084565b6020820191508190509392505050565b60006146ce826143b8565b9150819050919050565b60006146e3826144c4565b9150819050919050565b60006146f882614504565b9150819050919050565b6000602082019050818103600083015261471c8184613ff1565b905092915050565b60006020820190506147396000830184614066565b92915050565b60006020820190506147546000830184614075565b92915050565b600060808201905061476f6000830187614105565b8181036020830152614781818661414d565b90508181036040830152614795818561409b565b90506147a460608301846145ca565b95945050505050565b600060208201905081810360008301526147c7818461414d565b905092915050565b600060408201905081810360008301526147e9818561414d565b90506147f860208301846145ca565b9392505050565b6000602082019050818103600083015261481881614246565b9050919050565b6000602082019050818103600083015261483881614286565b9050919050565b60006020820190508181036000830152614858816142ec565b9050919050565b6000602082019050818103600083015261487881614352565b9050919050565b60006020820190508181036000830152614898816143f8565b9050919050565b600060208201905081810360008301526148b88161445e565b9050919050565b600060208201905081810360008301526148d98184614581565b905092915050565b60006020820190506148f660008301846145ca565b92915050565b6000604051905081810181811067ffffffffffffffff8211171561491f57600080fd5b8060405250919050565b600067ffffffffffffffff82111561494057600080fd5b601f19601f8301169050602081019050919050565b600067ffffffffffffffff82111561496c57600080fd5b601f19601f8301169050602081019050919050565b6000819050602082019050919050565b60008190508160005260206000209050919050565b600081519050919050565b600081519050919050565b600081519050919050565b6000602082019050919050565b600082825260208201905092915050565b600082825260208201905092915050565b600081905092915050565b600082825260208201905092915050565b600082825260208201905092915050565b600081905092915050565b600060ff82169050919050565b6000614a4682614a83565b9050919050565b60007fff0000000000000000000000000000000000000000000000000000000000000082169050919050565b6000819050919050565b600073ffffffffffffffffffffffffffffffffffffffff82169050919050565b6000819050919050565b600060ff82169050919050565b6000614ac582614aa3565b9050919050565b82818337600083830152505050565b60005b83811015614af9578082015181840152602081019050614ade565b83811115614b08576000848401525b50505050565b6000614b21614b1c83614b43565b614a2e565b9050919050565b6000819050919050565b6000601f19601f8301169050919050565b60008160001c9050919050565b614b5981614a3b565b8114614b6457600080fd5b50565b614b7081614a79565b8114614b7b57600080fd5b50565b614b8781614aa3565b8114614b9257600080fd5b5056fe7fb956469c5c9b89840d55b43537e66a98dd4811ea0a27224272c2e5622911e8537a2f8e86a46baec82864e98dd01e9ccc2f8bc5dfc9cbe5a91a290498dd96e4a26469706673582212209a9f4d3273fd8b11b345f014f1e85456a81f333c978e7476bd12ab612d61d65d64736f6c634300060c0033",
  "immutableReferences": {},
  "source": "pragma solidity >= 0.6;\r\npragma experimental ABIEncoderV2;\r\n\r\nimport \"./ProvableAPI_0.6.sol\";\r\nimport \"./SafeMath.sol\";\r\nimport \"./Initializable.sol\";\r\n\r\n/// @title A game to get cards\r\n/// @author James\r\ncontract GachaGame is usingProvable, Initializable {\r\n\r\n    using SafeMath for uint256;\r\n\r\n    uint168 constant pullCost = 1000000000000000;\r\n    uint8 constant pullMinimum = 1;\r\n\r\n    struct Card {\r\n        string Name;\r\n        uint8 Value;\r\n    }\r\n\r\n    Card[] private currentCards;\r\n\r\n    mapping(string => Card) cards;\r\n    mapping(address => uint) balance;\r\n\r\n    event Pull(Card card);\r\n    bytes32 public queryId;\r\n\r\n    function initialize() public initializer payable {\r\n      provable_setProof(proofType_Ledger);\r\n      initCards();\r\n    }\r\n\r\n    modifier requireEnoughDeposit {\r\n        require(msg.value >= pullCost, \"0.001 Ether is the minimum requirement\");\r\n        _;\r\n    }\r\n\r\n    /// @notice Get all cards that were pulled during the contracts lifetime\r\n    /// @dev Could change to a mapping to return the cards originating from the current user.\r\n    /// @return a list of cards\r\n    function getAllPulledCards() public view returns (Card[] memory) {\r\n        return currentCards;\r\n    }\r\n\r\n    /// @notice Add funds to the account\r\n    function pay() public requireEnoughDeposit payable {\r\n        balance[msg.sender] = balance[msg.sender].add(msg.value / pullCost);\r\n    }\r\n\r\n    /// @notice Retrieve cards\r\n    function pull() public requireEnoughDeposit payable {\r\n        require(msg.value / pullCost >= 1, \"You do not have enough funds to pull!\");\r\n        require(msg.value / pullCost <= 10, \"You are not allowed to pull more than 10 times in a single turn\");\r\n        balance[msg.sender] = balance[msg.sender].add(msg.value / pullCost);\r\n        uint count = balance[msg.sender];\r\n        require(count >= pullMinimum, \"You need to pull a minimum of 1 time\");\r\n\r\n        balance[msg.sender] = balance[msg.sender].sub(count);\r\n\r\n        for(uint i = 0; i < count; i++) {\r\n            queryId=provable_newRandomDSQuery(\r\n            0,          // QUERY_EXECUTION_DELAY\r\n            1,    // NUM_RANDOM_BYTES_REQUESTED\r\n            200000      // GAS_FOR_CALLBACK\r\n        );\r\n        }\r\n    }\r\n\r\n    /// @notice Check the current funds of the current account.\r\n    /// @return A value which represent the balance of the account\r\n    function checkBalance() public view returns (uint){\r\n        return balance[msg.sender];\r\n    }\r\n\r\n    function __callback(bytes32  _queryId,string memory _result,bytes memory _proof ) override public {\r\n        require(msg.sender == provable_cbAddress());\r\n        if (provable_randomDS_proofVerify__returnCode(_queryId,_result,_proof)== 0) {\r\n            gachaPull(uint256(keccak256(abi.encodePacked(_result))) % 200);\r\n        }\r\n    }\r\n\r\n    /// @notice Randomly select a card to return to the user and add it to the list of cards.\r\n    /// @param randomNumber A number which is used to determine the card to add to the list and give back to the user.\r\n    function gachaPull(uint randomNumber) private {\r\n        if (randomNumber > 25) {\r\n            currentCards.push(cards[\"Rare\"]);\r\n        } else if (randomNumber >= 5 && randomNumber <= 25) {\r\n            currentCards.push(cards[\"Super Rare\"]);\r\n        } else currentCards.push(cards[\"Ultra Rare\"]);\r\n\r\n        emit Pull(currentCards[currentCards.length - 1]);\r\n    }\r\n\r\n    /// @notice Load all possible cards that can get retrieved\r\n    function initCards() private {\r\n        cards[\"Rare\"] = Card({\r\n                Name: \"Rare\",\r\n                Value: 1\r\n        });\r\n        cards[\"Super Rare\"] = Card({\r\n                Name: \"Super Rare\",\r\n                Value: 3\r\n        });\r\n        cards[\"Ultra Rare\"] = Card({\r\n                Name: \"Ultra Rare\",\r\n                Value: 10\r\n        });\r\n    }\r\n\r\n    //function close() public {\r\n    //  selfdestruct(msg.sender);\r\n    //}\r\n\r\n}\r\n",
  "sourcePath": "C:/Users/james/Desktop/TruffleTest/contracts/Game.sol",
  "compiler": {
    "name": "solc",
    "version": "0.6.12+commit.27d51765.Emscripten.clang"
  },
  "schemaVersion": "3.3.2",
  "updatedAt": "2021-01-04T21:49:25.821Z",
  "networkType": "ethereum",
  "devdoc": {
    "author": "James",
    "kind": "dev",
    "methods": {
      "__callback(bytes32,string)": {
        "details": "The following `__callback` functions are just placeholders ideally      meant to be defined in child contract when proofs are used.      The function bodies simply silence compiler warnings."
      },
      "checkBalance()": {
        "returns": {
          "_0": "A value which represent the balance of the account"
        }
      },
      "getAllPulledCards()": {
        "details": "Could change to a mapping to return the cards originating from the current user.",
        "returns": {
          "_0": "a list of cards"
        }
      }
    },
    "title": "A game to get cards",
    "version": 1
  },
  "userdoc": {
    "kind": "user",
    "methods": {
      "checkBalance()": {
        "notice": "Check the current funds of the current account."
      },
      "getAllPulledCards()": {
        "notice": "Get all cards that were pulled during the contracts lifetime"
      },
      "pay()": {
        "notice": "Add funds to the account"
      },
      "pull()": {
        "notice": "Retrieve cards"
      }
    },
    "version": 1
  }
}