{
  "contractName": "GachaGame",
  "abi": [
    {
      "inputs": [],
      "stateMutability": "nonpayable",
      "type": "constructor"
    },
    {
      "anonymous": false,
      "inputs": [
        {
          "components": [
            {
              "internalType": "string",
              "name": "Name",
              "type": "string"
            },
            {
              "internalType": "uint8",
              "name": "Value",
              "type": "uint8"
            }
          ],
          "indexed": false,
          "internalType": "struct GachaGame.Card[]",
          "name": "cards",
          "type": "tuple[]"
        },
        {
          "indexed": false,
          "internalType": "uint256",
          "name": "count",
          "type": "uint256"
        },
        {
          "indexed": false,
          "internalType": "uint256",
          "name": "newBalance",
          "type": "uint256"
        }
      ],
      "name": "Pull",
      "type": "event"
    },
    {
      "inputs": [],
      "name": "getAllPulledCards",
      "outputs": [
        {
          "components": [
            {
              "internalType": "string",
              "name": "Name",
              "type": "string"
            },
            {
              "internalType": "uint8",
              "name": "Value",
              "type": "uint8"
            }
          ],
          "internalType": "struct GachaGame.Card[]",
          "name": "",
          "type": "tuple[]"
        }
      ],
      "stateMutability": "view",
      "type": "function"
    },
    {
      "inputs": [],
      "name": "pay",
      "outputs": [],
      "stateMutability": "payable",
      "type": "function"
    },
    {
      "inputs": [
        {
          "internalType": "uint256",
          "name": "count",
          "type": "uint256"
        }
      ],
      "name": "pull",
      "outputs": [],
      "stateMutability": "nonpayable",
      "type": "function"
    },
    {
      "inputs": [],
      "name": "checkBalance",
      "outputs": [
        {
          "internalType": "uint256",
          "name": "",
          "type": "uint256"
        }
      ],
      "stateMutability": "view",
      "type": "function"
    }
  ],
  "bytecode": "0x60806040523480156200001157600080fd5b50620000226200002860201b60201c565b62000403565b60405180604001604052806040518060400160405280600481526020017f52617265000000000000000000000000000000000000000000000000000000008152508152602001600160ff1681525060016040516200008690620003ca565b90815260200160405180910390206000820151816000019080519060200190620000b292919062000237565b5060208201518160010160006101000a81548160ff021916908360ff16021790555090505060405180604001604052806040518060400160405280600a81526020017f53757065722052617265000000000000000000000000000000000000000000008152508152602001600360ff1681525060016040516200013590620003e1565b908152602001604051809103902060008201518160000190805190602001906200016192919062000237565b5060208201518160010160006101000a81548160ff021916908360ff16021790555090505060405180604001604052806040518060400160405280600a81526020017f556c7472612052617265000000000000000000000000000000000000000000008152508152602001600a60ff168152506001604051620001e490620003b3565b908152602001604051809103902060008201518160000190805190602001906200021092919062000237565b5060208201518160010160006101000a81548160ff021916908360ff160217905550905050565b828054600181600116156101000203166002900490600052602060002090601f0160209004810192826200026f5760008555620002bb565b82601f106200028a57805160ff1916838001178555620002bb565b82800160010185558215620002bb579182015b82811115620002ba5782518255916020019190600101906200029d565b5b509050620002ca9190620002ce565b5090565b5b80821115620002e9576000816000905550600101620002cf565b5090565b6000620002fc600a83620003f8565b91507f556c7472612052617265000000000000000000000000000000000000000000006000830152600a82019050919050565b60006200033e600483620003f8565b91507f52617265000000000000000000000000000000000000000000000000000000006000830152600482019050919050565b600062000380600a83620003f8565b91507f53757065722052617265000000000000000000000000000000000000000000006000830152600a82019050919050565b6000620003c082620002ed565b9150819050919050565b6000620003d7826200032f565b9150819050919050565b6000620003ee8262000371565b9150819050919050565b600081905092915050565b61120b80620004136000396000f3fe60806040526004361061003f5760003560e01c80631b9265b8146100445780632eef33481461004e5780634d0392a814610079578063c71daccb146100a2575b600080fd5b61004c6100cd565b005b34801561005a57600080fd5b506100636101a4565b6040516100709190610f77565b60405180910390f35b34801561008557600080fd5b506100a0600480360381019061009b91906109e6565b6102c2565b005b3480156100ae57600080fd5b506100b7610573565b6040516100c49190611057565b60405180910390f35b66038d7ea4c6800074ffffffffffffffffffffffffffffffffffffffffff1634101561012e576040517f08c379a000000000000000000000000000000000000000000000000000000000815260040161012590610ff7565b60405180910390fd5b66038d7ea4c6800074ffffffffffffffffffffffffffffffffffffffffff16348161015557fe5b04600260003373ffffffffffffffffffffffffffffffffffffffff1673ffffffffffffffffffffffffffffffffffffffff16815260200190815260200160002060008282540192505081905550565b60606000805480602002602001604051908101604052809291908181526020016000905b828210156102b95783829060005260206000209060020201604051806040016040529081600082018054600181600116156101000203166002900480601f0160208091040260200160405190810160405280929190818152602001828054600181600116156101000203166002900480156102845780601f1061025957610100808354040283529160200191610284565b820191906000526020600020905b81548152906001019060200180831161026757829003601f168201915b505050505081526020016001820160009054906101000a900460ff1660ff1660ff1681525050815260200190600101906101c8565b50505050905090565b6001600260003373ffffffffffffffffffffffffffffffffffffffff1673ffffffffffffffffffffffffffffffffffffffff168152602001908152602001600020541015610345576040517f08c379a000000000000000000000000000000000000000000000000000000000815260040161033c90611017565b60405180910390fd5b600160ff1681101561038c576040517f08c379a000000000000000000000000000000000000000000000000000000000815260040161038390610fd7565b60405180910390fd5b600260003373ffffffffffffffffffffffffffffffffffffffff1673ffffffffffffffffffffffffffffffffffffffff1681526020019081526020016000205481111561040e576040517f08c379a000000000000000000000000000000000000000000000000000000000815260040161040590611037565b60405180910390fd5b60005b818110156104f457610421610909565b61042a826105ba565b905060008190806001815401808255809150506001900390600052602060002090600202016000909190919091506000820151816000019080519060200190610474929190610926565b5060208201518160010160006101000a81548160ff021916908360ff16021790555050506001600260003373ffffffffffffffffffffffffffffffffffffffff1673ffffffffffffffffffffffffffffffffffffffff16815260200190815260200160002060008282540392505081905550508080600101915050610411565b507fcc41aa7d14f5047f2e3f4bd3051a59113a4cdca6ddd6b6f31449dca63be64c53600082600260003373ffffffffffffffffffffffffffffffffffffffff1673ffffffffffffffffffffffffffffffffffffffff1681526020019081526020016000205460405161056893929190610f99565b60405180910390a150565b6000600260003373ffffffffffffffffffffffffffffffffffffffff1673ffffffffffffffffffffffffffffffffffffffff16815260200190815260200160002054905090565b6105c2610909565b60006105cd836108c3565b905060198160ff1611156106c95760016040516105e990610f10565b9081526020016040518091039020604051806040016040529081600082018054600181600116156101000203166002900480601f01602080910402602001604051908101604052809291908181526020018280546001816001161561010002031660029004801561069b5780601f106106705761010080835404028352916020019161069b565b820191906000526020600020905b81548152906001019060200180831161067e57829003601f168201915b505050505081526020016001820160009054906101000a900460ff1660ff1660ff16815250509150506108be565b60058160ff16101580156106e1575060198160ff1611155b156107d45760016040516106f490610f25565b9081526020016040518091039020604051806040016040529081600082018054600181600116156101000203166002900480601f0160208091040260200160405190810160405280929190818152602001828054600181600116156101000203166002900480156107a65780601f1061077b576101008083540402835291602001916107a6565b820191906000526020600020905b81548152906001019060200180831161078957829003601f168201915b505050505081526020016001820160009054906101000a900460ff1660ff1660ff16815250509150506108be565b60016040516107e290610efb565b9081526020016040518091039020604051806040016040529081600082018054600181600116156101000203166002900480601f0160208091040260200160405190810160405280929190818152602001828054600181600116156101000203166002900480156108945780601f1061086957610100808354040283529160200191610894565b820191906000526020600020905b81548152906001019060200180831161087757829003601f168201915b505050505081526020016001820160009054906101000a900460ff1660ff1660ff16815250509150505b919050565b60008060644284446040516020016108dd93929190610f3a565b6040516020818303038152906040528051906020012060001c816108fd57fe5b06905080915050919050565b604051806040016040528060608152602001600060ff1681525090565b828054600181600116156101000203166002900490600052602060002090601f01602090048101928261095c57600085556109a3565b82601f1061097557805160ff19168380011785556109a3565b828001600101855582156109a3579182015b828111156109a2578251825591602001919060010190610987565b5b5090506109b091906109b4565b5090565b5b808211156109cd5760008160009055506001016109b5565b5090565b6000813590506109e0816111be565b92915050565b6000602082840312156109f857600080fd5b6000610a06848285016109d1565b91505092915050565b6000610a1b8383610e40565b905092915050565b6000610a2f8383610e7d565b905092915050565b6000610a42826110ac565b610a4c81856110e7565b935083602082028501610a5e85611072565b8060005b85811015610a9a5784840389528151610a7b8582610a0f565b9450610a86836110cd565b925060208a01995050600181019050610a62565b50829750879550505050505092915050565b6000610ab7826110b7565b610ac181856110e7565b935083602082028501610ad385611082565b8060005b85811015610b0e57848403895281610aef8582610a23565b9450610afa836110da565b925060208a01995050600181019050610ad7565b50829750879550505050505092915050565b6000610b2b826110c2565b610b3581856110f8565b9350610b45818560208601611149565b610b4e816111a0565b840191505092915050565b600081546001811660008114610b765760018114610b9c57610be0565b607f6002830416610b8781876110f8565b955060ff198316865260208601935050610be0565b60028204610baa81876110f8565b9550610bb585611097565b60005b82811015610bd757815481890152600182019150602081019050610bb8565b80880195505050505b505092915050565b6000610bf5602483611109565b91507f596f75206e65656420746f2070756c6c2061206d696e696d756d206f6620312060008301527f74696d65000000000000000000000000000000000000000000000000000000006020830152604082019050919050565b6000610c5b602683611109565b91507f302e30303120457468657220697320746865206d696e696d756d20726571756960008301527f72656d656e7400000000000000000000000000000000000000000000000000006020830152604082019050919050565b6000610cc1602583611109565b91507f596f7520646f206e6f74206861766520656e6f7567682066756e647320746f2060008301527f70756c6c210000000000000000000000000000000000000000000000000000006020830152604082019050919050565b6000610d27600a8361111a565b91507f556c7472612052617265000000000000000000000000000000000000000000006000830152600a82019050919050565b6000610d67603583611109565b91507f596f7520646f206e6f74206861766520656e6f7567682066756e647320746f2060008301527f70756c6c2074686174206d616e792074696d65732100000000000000000000006020830152604082019050919050565b6000610dcd60048361111a565b91507f52617265000000000000000000000000000000000000000000000000000000006000830152600482019050919050565b6000610e0d600a8361111a565b91507f53757065722052617265000000000000000000000000000000000000000000006000830152600a82019050919050565b60006040830160008301518482036000860152610e5d8282610b20565b9150506020830151610e726020860182610eec565b508091505092915050565b60006040830160008084018583036000870152610e9a8382610b59565b92505060018401549050610ead8161117c565b610eba6020870182610eec565b50819250505092915050565b610ecf81611132565b82525050565b610ee6610ee182611132565b611196565b82525050565b610ef58161113c565b82525050565b6000610f0682610d1a565b9150819050919050565b6000610f1b82610dc0565b9150819050919050565b6000610f3082610e00565b9150819050919050565b6000610f468286610ed5565b602082019150610f568285610ed5565b602082019150610f668284610ed5565b602082019150819050949350505050565b60006020820190508181036000830152610f918184610a37565b905092915050565b60006060820190508181036000830152610fb38186610aac565b9050610fc26020830185610ec6565b610fcf6040830184610ec6565b949350505050565b60006020820190508181036000830152610ff081610be8565b9050919050565b6000602082019050818103600083015261101081610c4e565b9050919050565b6000602082019050818103600083015261103081610cb4565b9050919050565b6000602082019050818103600083015261105081610d5a565b9050919050565b600060208201905061106c6000830184610ec6565b92915050565b6000819050602082019050919050565b60008190508160005260206000209050919050565b60008190508160005260206000209050919050565b600081519050919050565b600081549050919050565b600081519050919050565b6000602082019050919050565b6000600282019050919050565b600082825260208201905092915050565b600082825260208201905092915050565b600082825260208201905092915050565b600081905092915050565b600060ff82169050919050565b6000819050919050565b600060ff82169050919050565b60005b8381101561116757808201518184015260208101905061114c565b83811115611176576000848401525b50505050565b600061118f61118a836111b1565b611125565b9050919050565b6000819050919050565b6000601f19601f8301169050919050565b60008160001c9050919050565b6111c781611132565b81146111d257600080fd5b5056fea26469706673582212204eb0b2fd078b30561b89ff6b207606475fc9a679e775a21414691e870716bc9b64736f6c63430007050033",
  "immutableReferences": {},
  "source": "pragma solidity >= 0.7.0;\r\npragma experimental ABIEncoderV2;\r\n\r\ncontract GachaGame {\r\n\r\n    uint168 constant pullCost = 1000000000000000;\r\n    uint8 constant pullMinimum = 1;\r\n\r\n    struct Card {\r\n        string Name;\r\n        uint8 Value;\r\n    }\r\n\r\n    Card[] private currentCards;\r\n\r\n    mapping(string => Card) cards;\r\n    mapping(address => uint) balance;\r\n\r\n    event Pull(Card[] cards, uint count, uint newBalance);\r\n\r\n    constructor() {\r\n        initCards();\r\n    }\r\n\r\n    function getAllPulledCards() public view returns (Card[] memory) {\r\n        return currentCards;\r\n    }\r\n\r\n    function pay() public payable {\r\n        require(msg.value >= pullCost, \"0.001 Ether is the minimum requirement\");\r\n        balance[msg.sender] += msg.value / pullCost;\r\n    }\r\n\r\n    function pull(uint count) public {\r\n        require(balance[msg.sender] >= 1, \"You do not have enough funds to pull!\");\r\n        require(count >= pullMinimum, \"You need to pull a minimum of 1 time\");\r\n        require(count <= balance[msg.sender], \"You do not have enough funds to pull that many times!\");\r\n\r\n        for(uint i = 0; i < count; i++) {\r\n            Card memory card = gachaPull(i);\r\n            currentCards.push(card);\r\n            balance[msg.sender] -= 1;\r\n        }\r\n\r\n        emit Pull(currentCards, count, balance[msg.sender]);\r\n    }\r\n\r\n    function checkBalance() public view returns (uint){\r\n        return balance[msg.sender];\r\n    }\r\n\r\n    function randomNumberGenerator(uint count) private view returns (uint8) {\r\n        uint8 randomnumber = uint8(uint(keccak256(abi.encodePacked(block.timestamp, count, block.difficulty))) % 100);\r\n        return randomnumber;\r\n    }\r\n\r\n    function gachaPull(uint count) private view returns (Card memory card) {\r\n        uint8 randomNumber = randomNumberGenerator(count);\r\n\r\n        if (randomNumber > 25) {\r\n            return cards[\"Rare\"];\r\n        } else if (randomNumber >= 5 && randomNumber <= 25) {\r\n            return cards[\"Super Rare\"];\r\n        }\r\n        return cards[\"Ultra Rare\"];\r\n    }\r\n\r\n    function initCards() private {\r\n        cards[\"Rare\"] = Card({\r\n                Name: \"Rare\",\r\n                Value: 1\r\n        });\r\n        cards[\"Super Rare\"] = Card({\r\n                Name: \"Super Rare\",\r\n                Value: 3\r\n        });\r\n        cards[\"Ultra Rare\"] = Card({\r\n                Name: \"Ultra Rare\",\r\n                Value: 10\r\n        });\r\n    }\r\n\r\n}\r\n",
  "sourcePath": "C:/Users/james/Desktop/TruffleTest/contracts/Game.sol",
  "compiler": {
    "name": "solc",
    "version": "0.7.5+commit.eb77ed08.Emscripten.clang"
  },
  "schemaVersion": "3.3.2",
  "updatedAt": "2020-12-11T13:24:10.849Z",
  "devdoc": {
    "kind": "dev",
    "methods": {},
    "version": 1
  },
  "userdoc": {
    "kind": "user",
    "methods": {},
    "version": 1
  }
}